:100000000C94E5020C9477080C9450080C940D03A2
:100010000C940D030C940D030C940D030C940D0320
:100020000C940D030C940D030C940D030C940D0310
:100030000C940D030C940D030C940D030C940D0300
:100040000C9406080C940D030C94C4080C949E08A0
:100050000C940D030C940D030C940D030C940D03E0
:100060000C94010B0C940D0300000000003E5B4F4C
:100070005B3E3E6B4F6B3E1C3E7C3E1C183C7E3C08
:10008000181C577D571C1C5E7F5E1C00183C180016
:10009000FFE7C3E7FF0018241800FFE7DBE7FF30A6
:1000A000483A060E2629792926407F050507407F14
:1000B00005253F5A3CE73C5A7F3E1C1C08081C1C87
:1000C0003E7F14227F22145F5F005F5F06097F017D
:1000D0007F006689956A606060606094A2FFA29468
:1000E00008047E040810207E201008082A1C080836
:1000F0001C2A08081E101010100C1E0C1E0C303884
:100100003E3830060E3E0E06000000000000005F84
:1001100000000007000700147F147F14242A7F2AA0
:100120001223130864623649562050000807030062
:10013000001C2241000041221C002A1C7F1C2A08AE
:10014000083E080800807030000808080808000011
:1001500060600020100804023E5149453E00427F85
:10016000400072494949462141494D331814127FD4
:100170001027454545393C4A494931412111090774
:100180003649494936464949291E000014000000F5
:1001900040340000000814224114141414140041C7
:1001A00022140802015909063E415D594E7C121184
:1001B000127C7F494949363E414141227F414141BC
:1001C0003E7F494949417F090909013E4141517337
:1001D0007F0808087F00417F41002040413F017FA8
:1001E000081422417F404040407F021C027F7F0470
:1001F00008107F3E4141413E7F090909063E4151B9
:10020000215E7F09192946264949493203017F01A8
:10021000033F4040403F1F2040201F3F4038403FA9
:10022000631408146303047804036159494D4300BF
:100230007F4141410204081020004141417F0402F6
:10024000010204404040404000030708002054548D
:1002500078407F284444383844444428384444286B
:100260007F385454541800087E090218A4A49C78BE
:100270007F0804047800447D40002040403D007F1A
:100280001028440000417F40007C047804787C08FA
:100290000404783844444438FC18242418182424CE
:1002A00018FC7C08040408485454542404043F44B3
:1002B000243C4040207C1C2040201C3C4030403CE2
:1002C00044281028444C9090907C4464544C440042
:1002D00008364100000077000000413608000201A6
:1002E0000204023C2623263C1EA1A161123A404092
:1002F000207A385454555921555579412154547810
:1003000041215554784020545579400C1E527212A8
:100310003955555559395454545939555454580030
:1003200000457C410002457D420001457C40F029AA
:100330002429F0F0282528F07C54554500205454F9
:100340007C547C0A097F493249494932324848483D
:1003500032324A4848303A4141217A3A4240207884
:10036000009DA0A07D39444444393D4040403D3C7F
:1003700024FF2424487E4943662B2FFC2F2BFF09A2
:1003800029F620C0887E0903205454794100004496
:100390007D413048484A32384040227A007A0A0A81
:1003A000727D0D19317D2629292F282629292926F4
:1003B00030484D4020380808080808080808382F39
:1003C00010C8ACBA2F102834FA00007B00000814C3
:1003D0002A142222142A1408AA005500AAAA55AAEF
:1003E00055AA000000FF00101010FF00141414FFA5
:1003F000001010FF00FF1010F010F0141414FC0097
:100400001414F700FF0000FF00FF1414F404FC14A0
:100410001417101F10101F101F1414141F00101099
:1004200010F0000000001F101010101F101010100E
:10043000F010000000FF101010101010101010FF2E
:1004400010000000FF140000FF00FF00001F101745
:100450000000FC04F414141710171414F404F4002E
:1004600000FF00F714141414141414F700F71414F4
:1004700014171410101F101F141414F4141010F07B
:1004800010F000001F101F0000001F14000000FCEF
:10049000140000F010F01010FF10FF141414FF14DB
:1004A0001010101F00000000F010FFFFFFFFFFF012
:1004B000F0F0F0F0FFFFFF0000000000FFFF0F0F63
:1004C0000F0F0F38444438447C2A2A3E147E02021F
:1004D0000606027E027E0263554941633844443C6D
:1004E00004407E201E2006027E020299A5E7A599FF
:1004F0001C2A492A1C4C7201724C304A4D4D303036
:1005000048784830BC625A463D3E494949007E0120
:1005100001017E2A2A2A2A2A44445F444440514A3F
:10052000444040444A51400000FF0103E080FF0086
:100530000008086B6B083612362436060F090F06C2
:10054000000018180000001010003040FF010100EA
:100550001F01011E00191D1712003C3C3C3C00000D
:1005600000000080C0A09088848890A0C080000017
:100570000000240027002A000000000025002800B9
:100580002B00000000080002010000030407000027
:100590000000000000000102040810204080010259
:1005A00004081020010204081020000000002300AD
:1005B00026002900040404040404040402020202C4
:1005C00002020303030303037F0F11241FBECFEFB7
:1005D000D8E0DEBFCDBF15E0A0E0B1E0EEE2F1E291
:1005E00002C005900D92A634B107D9F726E0A6E423
:1005F000B5E001C01D92A63EB207E1F712E0C5EEDC
:10060000D2E004C02197FE010E948A10C43ED107A7
:10061000C9F70E94570D0C9495100C940000089592
:10062000CF92DF92EF92FF920F931F93CF93DF93BE
:100630006C017A018B01C0E0D0E0CE15DF0581F0BE
:10064000D8016D918D01D601ED91FC910190F08161
:10065000E02DC6010995892B11F02196EECF7E0180
:10066000C701DF91CF911F910F91FF90EF90DF9025
:10067000CF900895FC01538D448D252F30E0842FB9
:1006800090E0821B930B541710F0CF9608950197BA
:100690000895FC01918D828D981761F0828DDF01A4
:1006A000A80FB11D5D968C91928D9F5F9F73928F65
:1006B00090E008958FEF9FEF0895FC01918D828D5A
:1006C000981731F0828DE80FF11D858D90E0089527
:1006D0008FEF9FEF0895FC01918D228D892F90E07F
:1006E000805C9F4F821B91098F739927089587E63D
:1006F00095E00E946B0321E0892B09F420E0822F12
:100700000895FC01848DDF01A80FB11DA35ABF4FCE
:100710002C91848D90E001968F739927848FA68900
:10072000B7892C93A089B1898C91837080648C9354
:10073000938D848D981306C00288F389E02D808103
:100740008F7D80830895EF92FF920F931F93CF9335
:10075000DF93EC0181E0888F9B8D8C8D981305C011
:10076000E889F989808185FD26C0F62E0B8D10E081
:100770000F5F1F4F0F731127E02E8C8DE8120CC0F6
:100780000FB607FCFACFE889F989808185FFF5CF9C
:10079000CE010E948103F1CF8B8DFE01E80FF11D88
:1007A000E35AFF4FF0829FB7F8940B8FEA89FB89D9
:1007B000808180620AC09FB7F894EE89FF896083C8
:1007C000E889F98980818370806480839FBF81E09C
:1007D00090E0DF91CF911F910F91FF90EF900895DE
:1007E000CF93DF93EC01888D8823C9F0EA89FB89D8
:1007F000808185FD05C0A889B9898C9186FD0FC0CF
:100800000FB607FCF5CF808185FFF2CFA889B989A3
:100810008C9185FFEDCFCE010E948103E7CFDF9160
:10082000CF91089580E090E0892B29F00E94770312
:1008300081110C9400000895CF93DF93DC01FB013C
:10084000CA01E90177FD8DC018962D913C91199749
:10085000621773070CF085C057FD83C01A962D915F
:100860003C911B97421753070CF07BC055963C9167
:100870005597323009F068C014966D917C911597A8
:100880009B012E1B3F0BF901319716964D915C9100
:1008900017979A01281B390BC90101970BC03130FA
:1008A00049F414962D913C911597281B390BCF01D3
:1008B000F9013197219719F5AC0197FF02C0495F03
:1008C0005F4F63E0559547956A95E1F75695542F2C
:1008D000442757954795E40FF51FEB5FFE4F68E0FF
:1008E00070E00E94621021E030E0A90102C0440FD4
:1008F000551F8A95E2F7CA019081892B23C09C017C
:1009000097FF02C0295F3F4F43E0359527954A95F1
:10091000E1F73695322F222737952795E20FF31FFF
:10092000EB5FFE4F68E070E00E94621021E030E073
:10093000A90102C0440F551F8A95E2F7CA018095AC
:100940009081892380830DC0333009F0A8CF16969B
:100950004D915C9117974E1B5F0BFC01CA010197EB
:10096000A9CFDF91CF91089508952F923F924F9292
:100970005F926F927F928F929F92AF92BF92CF922F
:10098000DF92EF92FF920F931F93CF93DF93CDB738
:10099000DEB72D970FB6F894DEBF0FBECDBF9D8397
:1009A0008C836A30A1F4DC0154962C9154971E96E6
:1009B0008D919C911F97B8E02B9F800D911D112464
:1009C000EC81FD819787868715861486F1C06D308E
:1009D00009F4EEC02C813D813D872C87D9011C96FE
:1009E000CD90DC901D9718968D919C911997C81603
:1009F000D906BCF0EC85FD854489242F30E0848540
:100A00009585F6E04F9F800D911D1124AC85BD8525
:100A10001D969C938E931C9756964C914111A4C0A1
:100A2000C7C0EC85FD85868497848285938588166A
:100A3000990604F7F489F983AF2EB12CC60126E09C
:100A4000F29F800D911D1124181619069CF6C50100
:100A500023E0880F991F2A95E1F7880D991D181634
:100A6000190644F6AC85BD8552960D90BC91A02D1B
:100A7000BD83AC83EC85FD850088F189E02DFF8383
:100A8000EE83F5E06F9FB001112416011A829B01DD
:100A90002C193D0939872887C40108969B878A87C6
:100AA0009A81953049F0E885F985E20DF31DE85902
:100AB000FF4FA491AB8301C01B8224013401BB8191
:100AC000B0FF13C0AC85BD85ED91FC91B981B1300B
:100AD00031F40084F185E02D2E813F8119C0028818
:100AE000F389E02DEE80FF801EC0EC81FD812E8118
:100AF0003F81E217F307F1F0AC85BD85ED91FC91E4
:100B0000B981B13059F40084F185E02D2C813D810B
:100B1000A301B1018C859D8509950CC00288F389DC
:100B2000E02DEC80FD8085019501A201B6018C8548
:100B30009D850995EB81E695EB83FFEF6F1A7F0AA0
:100B40004A0C5B1C2A853B852615370509F0B7CF73
:100B50003A813F5F3A835FEF251A350ACA0CDB1CE6
:100B6000363009F09DCF46CF4AEF4203B001439F94
:100B7000700D1124AC85BD8518964D915C91199727
:100B8000460F571F481759079CF483E0220F331F65
:100B90008A95E1F71E968D919C911F97280F391F1A
:100BA0001F963C932E931E971D961C921E921C9787
:100BB00081E090E02D960FB6F894DEBF0FBECDBF5A
:100BC000DF91CF911F910F91FF90EF90DF90CF9029
:100BD000BF90AF909F908F907F906F905F904F905D
:100BE0003F902F900895EF92FF920F931F93DC0197
:100BF0001A960D911C911B9718962D913C9119975F
:100C0000ED91FC910288F389E02D7B0140E050E0FA
:100C100060E070E009951F910F91FF90EF900895AB
:100C20006F927F928F929F92AF92BF92CF92DF92FC
:100C3000EF92FF920F931F93CF93DF936C015A01B2
:100C40004801EB013B01620E731EC615D70574F413
:100C5000D601ED91FC910484F585E02D8701940186
:100C6000A501BE01C60109952196EFCFDF91CF9175
:100C70001F910F91FF90EF90DF90CF90BF90AF90BA
:100C80009F908F907F906F900895EF92FF920F93B7
:100C90001F93260F371F21503109DC01ED91FC9184
:100CA0000284F385E02D78018A0109951F910F9147
:100CB000FF90EF900895EF92FF920F931F93240FF0
:100CC000351F21503109DC01ED91FC910284F3853F
:100CD000E02D780189019B0109951F910F91FF90EB
:100CE000EF9008956F927F928F929F92AF92BF92F2
:100CF000CF92DF92EF92FF920F931F93CF93DF93E8
:100D0000EC014B015A0169013801E881F98106843F
:100D1000F785E02D87010995A501460D571D415026
:100D20005109E881F9810684F785E02D9601B40127
:100D3000CE010995E881F9810484F585E02D9301C0
:100D4000A501B401CE010995C80CD91CB6016150AA
:100D50007109E881F9810484F585E02D9301A501ED
:100D6000CE010995DF91CF911F910F91FF90EF90E8
:100D7000DF90CF90BF90AF909F908F907F906F90BB
:100D800008952F923F924F925F926F927F928F922F
:100D90009F92AF92BF92CF92DF92EF92FF920F930A
:100DA0001F93CF93DF9300D000D000D0CDB7DEB734
:100DB0002C017E836D836A015901C801FC82EB829C
:100DC0004801841A950A97FE03C091948194910872
:100DD00035012D813E81621A730A77FE03C071943A
:100DE00061947108681479045CF43A2D2B2D5C0130
:100DF000832F922F3D812E81DE82CD82C32ED22E73
:100E0000AD81BE81AA16BB065CF43C2D2D2D6C0174
:100E1000832F922F3D812E81BE82AD82A32EB22ED2
:100E200085012D813E81021B130B1C012C183D08EE
:100E300037FE03C0319421943108780117FF03C0B5
:100E40003FEFE31AF30AF594E794C816D9062CF09D
:100E50008FEF9FEF9A83898304C0A1E0B0E0BA834B
:100E6000A9832D813E81A216B30624F1D201ED9112
:100E7000FC910084F185E02D2B813C81681479047C
:100E800024F44D815E81B60103C0A6016D817E818F
:100E9000C2010995E218F308F7FE06C029813A81DC
:100EA000C20ED31EE00EF11E8D819E8101969E839F
:100EB0008D83D7CF26960FB6F894DEBF0FBECDBF79
:100EC000DF91CF911F910F91FF90EF90DF90CF9026
:100ED000BF90AF909F908F907F906F905F904F905A
:100EE0003F902F900895089580E090E00895DC01F0
:100EF000ED91FD918081ED91FD919081ED91FD91BC
:100F00006C9163708E2309F064609F2309F0686020
:100F1000E4E9F7E0E60FF11D659565956D936D9138
:100F20007D918D919D91099423C01AC012C016C065
:100F300010C01EC009C014C013C006C019C009C02B
:100F40000DC007C00DC014C062507040804090407A
:100F50000BC0615070408040904006C06E5F01C081
:100F60006F5F7F4F8F4F9F4F9E938E937E936E93B5
:100F7000089580910606909107060C94770780915A
:100F80000406909105060C9477070E949010CF9369
:100F9000E4E8F5E08491E8E9F5E0E491E6EBF5E0DA
:100FA000C491CC2361F081110E942F0CEC2FF0E052
:100FB000EE0FFF1FE655FA4FA591B4918C91CF919A
:100FC00008953FB7F89480914C0590914D05A091FC
:100FD0004E05B0914F0526B5A89B05C02F3F19F0CF
:100FE0000196A11DB11D3FBFBA2FA92F982F8827A9
:100FF000820F911DA11DB11DBC01CD0142E0660F04
:10100000771F881F991F4A95D1F708951F920F9255
:101010000FB60F9211242F933F938F939F93AF930B
:10102000BF938091480590914905A0914A05B091E0
:101030004B053091470523E0230F2D3720F401960F
:10104000A11DB11D05C026E8230F0296A11DB11DEB
:10105000209347058093480590934905A0934A053E
:10106000B0934B0580914C0590914D05A0914E0594
:10107000B0914F050196A11DB11D80934C05909331
:101080004D05A0934E05B0934F05BF91AF919F9131
:101090008F913F912F910F900FBE0F901F90189539
:1010A0001F920F920FB60F9211242F933F934F93DD
:1010B0005F936F937F938F939F93AF93BF93EF93C0
:1010C000FF93E0910201F09103010995FF91EF91E7
:1010D000BF91AF919F918F917F916F915F914F9150
:1010E0003F912F910F900FBE0F901F9018951F9258
:1010F0000F920FB60F9211242F933F934F935F934C
:101100006F937F938F939F93AF93BF93EF93FF93CF
:10111000E0910001F09101010995FF91EF91BF91DC
:10112000AF919F918F917F916F915F914F913F917F
:101130002F910F900FBE0F901F9018951F920F9236
:101140000FB60F9211242F933F934F935F936F939A
:101150007F938F939F93AF93BF93EF93FF9387E614
:1011600095E00E948103FF91EF91BF91AF919F9114
:101170008F917F916F915F914F913F912F910F9040
:101180000FBE0F901F9018951F920F920FB60F92DF
:1011900011242F938F939F93EF93FF93E091770503
:1011A000F09178058081E0917D05F0917E0582FDCA
:1011B00012C09081809180058F5F8F73209181058F
:1011C000821751F0E0918005F0E0E959FA4F958FD0
:1011D0008093800501C08081FF91EF919F918F9155
:1011E0002F910F900FBE0F901F90189530915A05B8
:1011F000313208F04BC0809158058111FCCF90919D
:10120000D90622E02093580521E0209357052FEFBF
:101210002093B7061092B6063093B506E9EBF6E0D8
:10122000A5E9B6E020E0321721F041914D932F5F00
:10123000FACF1092940620919406990F922B9093D6
:10124000940690915605913061F410925605909154
:1012500094069093BB009091BC0093FDF8CF95EC61
:1012600001C095EE9093BC00909158059230E1F347
:101270009091B7069F3F79F08091B706803241F098
:101280008091B706803331F084E005C081E003C06F
:1012900082E001C083E01092590510925A05109225
:1012A000B806089528E030E040E8E0912706F09184
:1012B0002806508190912E06909595239083E09179
:1012C0002506F091260690912D06582F542319F0EB
:1012D0005081952B03C05081909595239083E09188
:1012E0002706F0912806508190912E06952B908329
:1012F000469521503109C9F6089585ED8093BC00CB
:101300008091BC0084FDFCCF109258050895409157
:101310007106262F30E0240F311D21323105DCF417
:10132000209158052430C9F4FC0180E090E0861734
:1013300058F4309171062191DC01AF5AB94FA30FD7
:10134000B11D2C930196F3CF80917106680F6093C5
:10135000710680E0089581E0089582E0089508957F
:1013600008950895E091510580915005E81730F4F3
:10137000F0E0EF5CF94F808190E008958FEF9FEFF0
:1013800008959091510580915005981750F4E92FD8
:10139000F0E0EF5CF94F208130E09F5F90935105C2
:1013A00002C02FEF3FEFC90108958091500590E0F2
:1013B00020915105821B91090895CF92DF92EF92FF
:1013C000FF920F931F93CF93DF937C01CB018A0190
:1013D0002091B806222389F0EB016B01C40ED51EC3
:1013E000CC15DD0569F06991D701ED91FC91019073
:1013F000F081E02DC7010995F3CF642F0E94870982
:10140000C801DF91CF911F910F91FF90EF90DF9076
:10141000CF900895CF93DF931F92CDB7DEB7698346
:101420002091B8062223D1F020915A05203240F0B5
:1014300021E030E0FC013383228380E090E015C09E
:1014400080915905E82FF0E0E754F94F9981908396
:101450008F5F8093590580935A0505C061E0CE01E6
:1014600001960E94870981E090E00F90DF91CF9173
:101470000895CF93C82F809120068F3F59F1E091B6
:101480002906F0912A06908180912F06892B80836E
:10149000E0912B06F0912C0690818091300680958A
:1014A00089238083E0912906F0912A06908180911A
:1014B0002F068095892380838C2F0E945209E0910A
:1014C0002906F0912A06908180912F06892B80832E
:1014D000CF91089580911F0691E09093B806809374
:1014E000D9061092590510925A0560E08BE595E0F7
:1014F0000E940A0A6C2F8BE595E00E940A0ACF91A0
:101500000C94F608BF92CF92DF92EF92FF920F9366
:101510001F93CF93DF9380E00E94390A80E10E94FD
:10152000390A80E40E94390A809120068F3F81F1B8
:10153000E0912906F0912A06908180912F06892B4F
:101540008083E0912B06F0912C06908180913006EB
:10155000892B8083E0912906F0912A069081809161
:101560002F06809589238083C5E0D1E005E015E052
:1015700089910E9452090C171D07D1F7E0912906A5
:10158000F0912A06908180912F06892B80832FC0AD
:101590000091B8008CE08093B800C5E0D1E085E010
:1015A000C82E85E0D82EBB24B39480911F06B0923C
:1015B000B8068093D9061092590510925A0560E436
:1015C0008BE595E00E940A0A7E0110E1F701619126
:1015D0007F018BE595E00E940A0A1150B9F70E943D
:1015E000F6086096CC16DD0601F70093B800DF918F
:1015F000CF911F910F91FF90EF90DF90CF90BF9010
:1016000008951F920F920FB60F9211242F933F93BC
:101610004F935F936F937F938F939F93AF93BF93FA
:10162000EF93FF938091B900887F803609F49CC0C6
:1016300068F5883209F45BC090F4803109F454C035
:1016400038F4882309F4F6C0883009F44DC0F6C098
:10165000883109F44CC0803209F45DC0EFC0803499
:1016600009F468C048F4803309F455C0883309F0A0
:10167000E5C08093B706D8C0803509F44FC08835DF
:1016800009F45DC0883409F0D9C0D6C0883909F49E
:10169000C7C0A8F4883709F467C038F4883609F45D
:1016A00063C0803709F460C0C9C0883809F4B8C085
:1016B000803909F45FC0803809F0C0C05BC0803B4E
:1016C00009F486C038F4803A09F466C0883A09F40F
:1016D0007FC0B4C0803C09F4A7C0883C09F4A4C012
:1016E000883B09F48AC0AAC08091940610C09091EA
:1016F000B6068091B506981770F5E091B60681E0C0
:101700008E0F8093B606F0E0EB56F94F8081809300
:10171000BB0085EC86C08093B7068EC0E091B6060C
:1017200081E08E0F8093B6068091BB00F0E0EB560F
:10173000F94F80839091B6068091B5066EC0E09116
:10174000B60681E08E0F8093B6068091BB00F0E074
:10175000EB56F94F80838091570581116DC081E070
:101760008093560584EA61C083E080935805109207
:101770009306CFCF80919306803208F051C0E0915C
:10178000930681E08E0F809393068091BB00F0E07A
:10179000ED58F94F8083BDCF85EC8093BC0010924B
:1017A000580580919306803230F4E0919306F0E082
:1017B000ED58F94F10826091930670E0E091540566
:1017C000F091550583E796E009951092930636C08F
:1017D00084E0809358051092720610927106E09191
:1017E0005205F0915305099580917106811105C04C
:1017F00081E08093710610925106E091720681E0BB
:101800008E0F80937206F0E0EF5AF94F808180933B
:10181000BB009091720680917106981708F479CFF9
:1018200085E88093BC000AC085EC8093BC001092D0
:10183000580504C01092B7060E947D09FF91EF91F0
:10184000BF91AF919F918F917F916F915F914F91D8
:101850003F912F910F900FBE0F901F9018958330DE
:1018600081F028F4813099F08230A1F0089587301A
:10187000A9F08830B9F08430D1F4809180008F7D58
:1018800003C0809180008F7780938000089584B595
:101890008F7702C084B58F7D84BD08958091B0009C
:1018A0008F7703C08091B0008F7D8093B000089542
:1018B0001F93CF93DF93282F30E0F901EE57FA4FB3
:1018C0008491F901EA56FA4FD491F901EC54FA4F98
:1018D000C491CC23C1F0162F81110E942F0CEC2F44
:1018E000F0E0EE0FFF1FE858FA4FA591B4919FB7B3
:1018F000F894111104C08C91D095D82302C0EC91BA
:10190000DE2BDC939FBFDF91CF911F910895CF9382
:10191000DF9390E0FC01EA56FA4F2491FC01EC546D
:10192000FA4F8491882361F190E0880F991FFC01A0
:10193000E259FA4FC591D491FC01E858FA4FA591AC
:10194000B491611109C09FB7F894888120958223D2
:101950008883EC912E230BC0623061F49FB7F8941A
:101960008881322F309583238883EC912E2B2C9302
:101970009FBF06C08FB7F894E8812E2B28838FBFB6
:10198000DF91CF910895CF93DF93EC0161E083E085
:101990000E94870C209711F460E004C0CF3FD1056E
:1019A00031F461E083E0DF91CF910C94580CE5E8CD
:1019B000F5E0E491E330F9F048F4E130B9F0E230D9
:1019C000A1F584B5806284BDC8BD34C0E730E9F0BC
:1019D000E83019F1E43049F580918000806280930D
:1019E0008000D0938B00C0938A0024C084B58068A7
:1019F00084BDC7BD1FC08091800080688093800037
:101A0000D0938900C093880015C08091B000806891
:101A10008093B000C093B3000DC08091B00080628D
:101A20008093B000C093B40005C0C038D1050CF05D
:101A3000B8CFB2CFDF91CF9108958F929F92AF929E
:101A4000BF92CF92DF92EF92FF926B017C010E94D6
:101A5000E1074B015C01C114D104E104F104F1F090
:101A60000E94E107DC01CB0188199909AA09BB0989
:101A7000883E9340A105B10570F321E0C21AD10858
:101A8000E108F10888EE880E83E0981EA11CB11CC5
:101A9000C114D104E104F10419F7DDCFFF90EF90F8
:101AA000DF90CF90BF90AF909F908F9008957894E3
:101AB00084B5826084BD84B5816084BD85B5826053
:101AC00085BD85B5816085BD80916E008160809304
:101AD0006E0010928100809181008260809381006D
:101AE000809181008160809381008091800081607D
:101AF000809380008091B10084608093B1008091D8
:101B0000B00081608093B00080917A0084608093FF
:101B10007A0080917A00826080937A0080917A00C6
:101B2000816080937A0080917A00806880937A0047
:101B30001092C10060E082E00E94870C61E083E0C7
:101B40000E94870C87EC97E090930101809300013D
:101B5000809169008C7F816080936900E89AE091B0
:101B60007705F091780582E08083E0917305F0912C
:101B700074051082E0917505F09176058FEC8083F5
:101B800010927F05E0917B05F0917C0586E08083D3
:101B9000E0917905F0917A05808180618083E09100
:101BA0007905F0917A05808188608083E0917905DC
:101BB000F0917A05808180688083E0917905F091C9
:101BC0007A0580818F7D80838CE380931F068091CE
:101BD00020068F3F09F47BC061E00E94870C61E022
:101BE000809121060E94870C61E0809122060E946C
:101BF000870C61E0809124060E94870C8091210669
:101C0000082E000C990BFC01EC54FA4FE491F0E023
:101C1000EE0FFF1FE858FA4F2591349130932806B4
:101C200020932706FC01EA56FA4FE491E0932E0632
:101C300080912006082E000C990BFC01EC54FA4F01
:101C4000E491F0E0EE0FFF1FE858FA4F2591349130
:101C50003093260620932506FC01EA56FA4FE491BC
:101C6000E0932D0680912406082E000C990BFC01B0
:101C7000EC54FA4FE491F0E0EE0FFF1FE858FA4FF2
:101C80002591349130932A0620932906FC01EA56C7
:101C9000FA4FE491E0932F0680912206082E000C63
:101CA000990BFC01EC54FA4FE491F0E0EE0FFF1FAA
:101CB000E858FA4F2591349130932C0620932B0647
:101CC000FC01EA56FA4FE491E093300633C01092DB
:101CD0005105109250051092590510925A05109214
:101CE000580581E0809357051092560561E082E126
:101CF0000E94580C61E083E10E94580C8091B90069
:101D00008E7F8093B9008091B9008D7F8093B90058
:101D100088E48093B80085E48093BC008FEA99E062
:101D2000909353058093520580EB99E0909355056D
:101D3000809354058EEA0E94390A85ED0E94390A83
:101D400080E80E94390A88EA0E94390A8FE30E94DB
:101D5000390A83ED0E94390A80E00E94390A80E442
:101D60000E94390A8DE80E94390A84E10E94390AEA
:101D700080E20E94390A80E00E94390A81EA0E94CA
:101D8000390A88EC0E94390A8AED0E94390A82E1F8
:101D90000E94390A81E80E94390A8FEC0E94390AB0
:101DA00089ED0E94390A81EF0E94390A8BED0E9469
:101DB000390A80E40E94390A84EA0E94390A86EAD4
:101DC0000E94390A80EB0E94390A80E10E94390A98
:101DD00081E00E94390A8FEA0E94390A80E094E08B
:101DE000E5E0F1E0DF019C011D9221503040E1F778
:101DF0000E94820A81E080931D0620910E06309198
:101E00000F06309311062093100620910C06309196
:101E10000D06309313062093120680931C0681E072
:101E200090E090931B0680931A0690931906809376
:101E3000180688E090E0909315068093140610929F
:101E4000170610921606C4E1D0E080E8E82EF12CC7
:101E500000E010E0CE01815B9A4F6C01F6018491A5
:101E600090E09701002E02C0359527950A94E2F77D
:101E700082239323892B51F021E030E0AE01B80199
:101E8000675F7F4F88E096E00E941C040F5F1F4F42
:101E90000830110519F72196CF31D105C9F60E94F6
:101EA000820A6AE070E080E090E00E941D0D80915F
:101EB000460590E00E94C30CC1E0809146058F3F2B
:101EC00019F41092040104C0811102C0C0930401EE
:101ED00090910401992311F08F5F01C0815080938C
:101EE00046058091460590E00E94C30C6EE170E0CB
:101EF00080E090E00E941D0D0E941204DECFCF937F
:101F0000DF9310925E0510925D0588EE93E0A0E0ED
:101F1000B0E080935F0590936005A0936105B09356
:101F2000620529E035E030935C0520935B05109253
:101F30006A051092690580936B0590936C05A093D8
:101F40006D05B0936E058BE195E0909368058093E5
:101F5000670585EC90E0909374058093730584EC9D
:101F600090E0909376058093750580EC90E09093D7
:101F700078058093770581EC90E090937A058093C3
:101F8000790582EC90E090937C0580937B0586EC4C
:101F900090E090937E0580937D05109280051092CD
:101FA0008105109282051092830510920B06109203
:101FB0000A0620E830E030930D0620930C0680E4FA
:101FC00090E090930F0680930E06309311062093B5
:101FD0001006909313068093120610921D0610921D
:101FE000150610921406109217061092160681E03C
:101FF00080931C062FEF3FEF30931B0620931A06A9
:10200000309319062093180680931E068DE295E002
:1020100090930906809308068FEF809320068093A3
:102020002406809322068093210684E08093230671
:1020300062E088E00E94870C62E089E00E94870CE1
:10204000ECEBF5E0E491F0E0EE0FFF1FE655FA4F00
:10205000A591B491B093DB06A093DA06EEE9F5E022
:1020600084918093DE06EDEBF5E0E491F0E0EE0F75
:10207000FF1FE655FA4FC591D491D093DD06C0936A
:10208000DC06EFE9F5E094919093DF061092E1060B
:102090001092E2061092E3061092E406EBE3FFE1F1
:1020A0003197F1F7EC91E82381E009F480E0E881D1
:1020B000E92309F082608093E0061092E506DF9143
:1020C000CF91089597FB072E16F4009407D077FD63
:1020D00009D00E94761007FC05D03EF490958195BA
:1020E0009F4F0895709561957F4F0895AA1BBB1B64
:1020F00051E107C0AA1FBB1FA617B70710F0A61B08
:10210000B70B881F991F5A95A9F780959095BC0128
:10211000CD010895EE0FFF1F0590F491E02D099475
:0E21200081E090E0F8940C949510F894FFCFB5
:10212E000F030F030100000000000000000000007C
:10213E000000000000000000000000000000000091
:10214E000000000000000000000000000000000081
:10215E000000000000000000000000000000000071
:10216E0000000000808080000000000000000000E1
:10217E000000000000008080C0C0000000000000D1
:10218E000000000000000000000000000000000041
:10219E000000000000000000000000000000000031
:1021AE000000000000000000000000000000000021
:1021BE0000000000000000000080C0E0F0F8FCF815
:1021CE00E000000000000000000000000000000021
:1021DE000000808080808000808000000000808071
:1021EE0080808000FFFFFF00000000808080800064
:1021FE00008080000080FFFF808000808000808053
:10220E0080800080800000000000808000008C8EA6
:10221E0084000080F8F8F880000000000000000044
:10222E000000000000F0F0F0F0F0F0F0F0F0F0F050
:10223E00F0E0E0C08000E0FCFEFFFFFF7FFFFFFF4D
:10224E00FFFF000000000000000000000000000082
:10225E00FEFFC70101010183FFFF00007CFEC701E5
:10226E0001010183FFFFFF0038FEC78301010183D7
:10227E00C7FFFF000001FFFF010100FFFF07010183
:10228E000100007FFF80000000FFFF7F0000FFFFC6
:10229E00FF000001FFFFFF01000000000000000032
:1022AE000000000000030F3F7F7FFFFFFFFFFFFFD7
:1022BE00FFE7C7C78F8F9FBFFFFFC3C0F0FFFFFFB2
:1022CE00FFFFFCFCFCFCFCFCFCFCF8F8F0F0E0C0B2
:1022DE0000010303030303010303000000000103D5
:1022EE0003030301010301000000010303030301C3
:1022FE0001030300000003030000000303000000BD
:10230E0000000000010303030303010000000103AA
:10231E0001000000030301000000000000000000A7
:10232E00000000000000000080C0E0F0F9FFFFFF99
:10233E00FFFF3F1F0F87C7F7FFFF1F1F3DFCF8F87A
:10234E00F8F87C7DFFFFFFFFFFFFFFFF7F3F0F07CA
:10235E00003030000000000000000000000000000F
:10236E00000000000000000000FEFEFC0000000067
:10237E00000000000000000000000000000000004F
:10238E000000E0C00000000000000000000000306F
:10239E0030000000000000000000000000000000FF
:1023AE00000000000000C0FEFFFFFFFFFFFFFFFF69
:1023BE00FF7F7F3F1F0F071F7FFFFFF8F8FFFFFF15
:1023CE00FFFFFEF8E000000001000000000000002A
:1023DE0000FEFE000000FCFEFC0C06060EFCF800E3
:1023EE0000F0F81C0E0606060CFFFFFF0000FEFEB6
:1023FE0000000000FCFEFC00183C7E66E6CE840069
:10240E000006FFFF0606FCFEFC0C0606060000FE9C
:10241E00FE0000C0F8FC4E4646464E7C7840183C06
:10242E0076E6CECC80000000000000000000000028
:10243E0000000000000000000001070F1F1F3F3FBB
:10244E003F3F1F0F030000000000000000000000CF
:10245E00000F0F0000000F0F0F000000000F0F0005
:10246E000003070E0C18180C060F0F0F0000010FBB
:10247E000E0C180C0F070100040E0C180C0F0700A1
:10248E0000000F0F00000F0F0F0000000000000FE4
:10249E000F00000007070C0C181C0C060600040E9B
:1024AE000C180C0F070000000000000000000000D8
:1024BE00000000000000000000000000000000000E
:1024CE0000000000000000000000000000000000FE
:1024DE0000000000000000000000000000000000EE
:1024EE0000000000000000000000000000000000DE
:1024FE0000000000000000000000000000000000CE
:10250E0000000000000000000000000000000000BD
:10251E0000000000000000000000000000000000AD
:10252E000000000000000000000A0ADD097407B177
:10253E0009D509C109B20900000000A30310033A2E
:10254E0003F0036B0349035D0300000000B50410A4
:10255E0003740773071C04C1065B0645067206105A
:06256E0006F305B40400B1
:00000001FF
